{
    "_format": "hh-sol-artifact-1",
    "contractName": "Locker",
    "sourceName": "contracts/Locker.sol",
    "abi": [
        {
            "anonymous": false,
            "inputs": [
                {
                    "indexed": false,
                    "internalType": "address",
                    "name": "previousAdmin",
                    "type": "address"
                },
                {
                    "indexed": false,
                    "internalType": "address",
                    "name": "newAdmin",
                    "type": "address"
                }
            ],
            "name": "AdminChanged",
            "type": "event"
        },
        {
            "anonymous": false,
            "inputs": [
                {
                    "indexed": true,
                    "internalType": "address",
                    "name": "beacon",
                    "type": "address"
                }
            ],
            "name": "BeaconUpgraded",
            "type": "event"
        },
        {
            "anonymous": false,
            "inputs": [
                {
                    "indexed": false,
                    "internalType": "string",
                    "name": "canisterId",
                    "type": "string"
                },
                {
                    "indexed": true,
                    "internalType": "address",
                    "name": "account",
                    "type": "address"
                },
                {
                    "indexed": false,
                    "internalType": "uint256",
                    "name": "amount",
                    "type": "uint256"
                },
                {
                    "indexed": false,
                    "internalType": "string",
                    "name": "chain",
                    "type": "string"
                },
                {
                    "indexed": false,
                    "internalType": "address",
                    "name": "token",
                    "type": "address"
                }
            ],
            "name": "FundsDeposited",
            "type": "event"
        },
        {
            "anonymous": false,
            "inputs": [
                {
                    "indexed": false,
                    "internalType": "string",
                    "name": "canisterId",
                    "type": "string"
                },
                {
                    "indexed": true,
                    "internalType": "address",
                    "name": "account",
                    "type": "address"
                },
                {
                    "indexed": false,
                    "internalType": "uint256",
                    "name": "amount",
                    "type": "uint256"
                },
                {
                    "indexed": false,
                    "internalType": "string",
                    "name": "chain",
                    "type": "string"
                },
                {
                    "indexed": false,
                    "internalType": "address",
                    "name": "token",
                    "type": "address"
                }
            ],
            "name": "FundsWithdrawn",
            "type": "event"
        },
        {
            "anonymous": false,
            "inputs": [
                {
                    "indexed": false,
                    "internalType": "uint8",
                    "name": "version",
                    "type": "uint8"
                }
            ],
            "name": "Initialized",
            "type": "event"
        },
        {
            "anonymous": false,
            "inputs": [
                {
                    "indexed": true,
                    "internalType": "address",
                    "name": "previousOwner",
                    "type": "address"
                },
                {
                    "indexed": true,
                    "internalType": "address",
                    "name": "newOwner",
                    "type": "address"
                }
            ],
            "name": "OwnershipTransferred",
            "type": "event"
        },
        {
            "anonymous": false,
            "inputs": [
                {
                    "indexed": false,
                    "internalType": "address",
                    "name": "remittanceCanister",
                    "type": "address"
                }
            ],
            "name": "UpdateRemittanceCanister",
            "type": "event"
        },
        {
            "anonymous": false,
            "inputs": [
                {
                    "indexed": true,
                    "internalType": "address",
                    "name": "implementation",
                    "type": "address"
                }
            ],
            "name": "Upgraded",
            "type": "event"
        },
        {
            "anonymous": false,
            "inputs": [
                {
                    "indexed": false,
                    "internalType": "string",
                    "name": "canisterId",
                    "type": "string"
                },
                {
                    "indexed": true,
                    "internalType": "address",
                    "name": "account",
                    "type": "address"
                },
                {
                    "indexed": false,
                    "internalType": "uint256",
                    "name": "amount",
                    "type": "uint256"
                },
                {
                    "indexed": false,
                    "internalType": "string",
                    "name": "chain",
                    "type": "string"
                },
                {
                    "indexed": false,
                    "internalType": "address",
                    "name": "token",
                    "type": "address"
                }
            ],
            "name": "WithdrawCanceled",
            "type": "event"
        },
        {
            "inputs": [
                {
                    "internalType": "string",
                    "name": "_canisterId",
                    "type": "string"
                },
                {
                    "internalType": "address",
                    "name": "_token",
                    "type": "address"
                },
                {
                    "internalType": "uint256",
                    "name": "_nonce",
                    "type": "uint256"
                },
                {
                    "internalType": "uint256",
                    "name": "_amount",
                    "type": "uint256"
                },
                {
                    "internalType": "bytes",
                    "name": "_signature",
                    "type": "bytes"
                }
            ],
            "name": "cancelWithdraw",
            "outputs": [],
            "stateMutability": "nonpayable",
            "type": "function"
        },
        {
            "inputs": [
                {
                    "internalType": "bytes32",
                    "name": "",
                    "type": "bytes32"
                },
                {
                    "internalType": "address",
                    "name": "",
                    "type": "address"
                }
            ],
            "name": "canisters",
            "outputs": [
                {
                    "internalType": "uint256",
                    "name": "",
                    "type": "uint256"
                }
            ],
            "stateMutability": "view",
            "type": "function"
        },
        {
            "inputs": [],
            "name": "chainId",
            "outputs": [
                {
                    "internalType": "string",
                    "name": "",
                    "type": "string"
                }
            ],
            "stateMutability": "view",
            "type": "function"
        },
        {
            "inputs": [
                {
                    "internalType": "string",
                    "name": "_canisterId",
                    "type": "string"
                },
                {
                    "internalType": "uint256",
                    "name": "_amount",
                    "type": "uint256"
                },
                {
                    "internalType": "address",
                    "name": "_token",
                    "type": "address"
                }
            ],
            "name": "depositFunds",
            "outputs": [],
            "stateMutability": "payable",
            "type": "function"
        },
        {
            "inputs": [
                {
                    "internalType": "string",
                    "name": "_canisterId",
                    "type": "string"
                },
                {
                    "internalType": "address",
                    "name": "_token",
                    "type": "address"
                }
            ],
            "name": "getBalance",
            "outputs": [
                {
                    "internalType": "uint256",
                    "name": "balance",
                    "type": "uint256"
                }
            ],
            "stateMutability": "view",
            "type": "function"
        },
        {
            "inputs": [
                {
                    "internalType": "address",
                    "name": "_remittanceCanister",
                    "type": "address"
                },
                {
                    "internalType": "string",
                    "name": "_chainId",
                    "type": "string"
                }
            ],
            "name": "initialize",
            "outputs": [],
            "stateMutability": "nonpayable",
            "type": "function"
        },
        {
            "inputs": [],
            "name": "owner",
            "outputs": [
                {
                    "internalType": "address",
                    "name": "",
                    "type": "address"
                }
            ],
            "stateMutability": "view",
            "type": "function"
        },
        {
            "inputs": [],
            "name": "proxiableUUID",
            "outputs": [
                {
                    "internalType": "bytes32",
                    "name": "",
                    "type": "bytes32"
                }
            ],
            "stateMutability": "view",
            "type": "function"
        },
        {
            "inputs": [],
            "name": "remittanceCanister",
            "outputs": [
                {
                    "internalType": "address",
                    "name": "",
                    "type": "address"
                }
            ],
            "stateMutability": "view",
            "type": "function"
        },
        {
            "inputs": [],
            "name": "renounceOwnership",
            "outputs": [],
            "stateMutability": "nonpayable",
            "type": "function"
        },
        {
            "inputs": [
                {
                    "internalType": "address",
                    "name": "_remittanceCanister",
                    "type": "address"
                }
            ],
            "name": "setRemittanceCanisterAddress",
            "outputs": [],
            "stateMutability": "nonpayable",
            "type": "function"
        },
        {
            "inputs": [
                {
                    "internalType": "address",
                    "name": "newOwner",
                    "type": "address"
                }
            ],
            "name": "transferOwnership",
            "outputs": [],
            "stateMutability": "nonpayable",
            "type": "function"
        },
        {
            "inputs": [
                {
                    "internalType": "address",
                    "name": "newImplementation",
                    "type": "address"
                }
            ],
            "name": "upgradeTo",
            "outputs": [],
            "stateMutability": "nonpayable",
            "type": "function"
        },
        {
            "inputs": [
                {
                    "internalType": "address",
                    "name": "newImplementation",
                    "type": "address"
                },
                {
                    "internalType": "bytes",
                    "name": "data",
                    "type": "bytes"
                }
            ],
            "name": "upgradeToAndCall",
            "outputs": [],
            "stateMutability": "payable",
            "type": "function"
        },
        {
            "inputs": [
                {
                    "internalType": "string",
                    "name": "_canisterId",
                    "type": "string"
                },
                {
                    "internalType": "address",
                    "name": "_token",
                    "type": "address"
                },
                {
                    "internalType": "uint256",
                    "name": "_nonce",
                    "type": "uint256"
                },
                {
                    "internalType": "uint256",
                    "name": "_amount",
                    "type": "uint256"
                },
                {
                    "internalType": "bytes",
                    "name": "_signature",
                    "type": "bytes"
                }
            ],
            "name": "withdraw",
            "outputs": [],
            "stateMutability": "nonpayable",
            "type": "function"
        },
        {
            "inputs": [
                {
                    "internalType": "string",
                    "name": "_canisterId",
                    "type": "string"
                },
                {
                    "internalType": "address",
                    "name": "_token",
                    "type": "address"
                },
                {
                    "internalType": "uint256",
                    "name": "_nonce",
                    "type": "uint256"
                },
                {
                    "internalType": "uint256",
                    "name": "_amount",
                    "type": "uint256"
                },
                {
                    "internalType": "bytes",
                    "name": "_signature",
                    "type": "bytes"
                },
                {
                    "internalType": "address",
                    "name": "_recipient",
                    "type": "address"
                }
            ],
            "name": "withdrawTo",
            "outputs": [],
            "stateMutability": "nonpayable",
            "type": "function"
        }
    ],
    "bytecode": "0x60a06040523073ffffffffffffffffffffffffffffffffffffffff1660809073ffffffffffffffffffffffffffffffffffffffff1681525034801561004357600080fd5b5060805161340f61007b600039600081816105f60152818161068401528181610a2401528181610ab20152610b62015261340f6000f3fe6080604052600436106100f35760003560e01c806389f4b3171161008a578063a0411b7811610059578063a0411b78146102d4578063e3fefb22146102fd578063f2fde38b1461033a578063f399e22e14610363576100f3565b806389f4b317146102165780638da5cb5b146102535780639a8a05921461027e5780639d465500146102a9576100f3565b80634f1ef286116100c65780634f1ef2861461018f57806352d1902d146101ab57806360005cbb146101d6578063715018a6146101ff576100f3565b80630232d42e146100f8578063136cd5e6146101215780633659cfe61461013d578063410899fd14610166575b600080fd5b34801561010457600080fd5b5061011f600480360381019061011a9190611b17565b61038c565b005b61013b60048036038101906101369190611bdf565b61040f565b005b34801561014957600080fd5b50610164600480360381019061015f9190611b17565b6105f4565b005b34801561017257600080fd5b5061018d60048036038101906101889190611ca9565b61077c565b005b6101a960048036038101906101a49190611eb9565b610a22565b005b3480156101b757600080fd5b506101c0610b5e565b6040516101cd9190611f2e565b60405180910390f35b3480156101e257600080fd5b506101fd60048036038101906101f89190611f49565b610c17565b005b34801561020b57600080fd5b50610214610df0565b005b34801561022257600080fd5b5061023d60048036038101906102389190612005565b610e04565b60405161024a9190612074565b60405180910390f35b34801561025f57600080fd5b50610268610e77565b604051610275919061209e565b60405180910390f35b34801561028a57600080fd5b50610293610ea1565b6040516102a09190612138565b60405180910390f35b3480156102b557600080fd5b506102be610f2f565b6040516102cb919061209e565b60405180910390f35b3480156102e057600080fd5b506102fb60048036038101906102f69190611f49565b610f55565b005b34801561030957600080fd5b50610324600480360381019061031f9190612186565b610f7e565b6040516103319190612074565b60405180910390f35b34801561034657600080fd5b50610361600480360381019061035c9190611b17565b610fa3565b005b34801561036f57600080fd5b5061038a600480360381019061038591906121c6565b611026565b005b6103946111e5565b8060fd60006101000a81548173ffffffffffffffffffffffffffffffffffffffff021916908373ffffffffffffffffffffffffffffffffffffffff1602179055507fe2140837d01ec946f4a5f902dd01d3d0a8c72e3b2c8cd463bcd1b681dc293a8e81604051610404919061209e565b60405180910390a150565b601b8484905014610455576040517f08c379a000000000000000000000000000000000000000000000000000000000815260040161044c90612272565b60405180910390fd5b60008211610498576040517f08c379a000000000000000000000000000000000000000000000000000000000815260040161048f906122de565b60405180910390fd5b8073ffffffffffffffffffffffffffffffffffffffff166323b872dd3330856040518463ffffffff1660e01b81526004016104d5939291906122fe565b6020604051808303816000875af11580156104f4573d6000803e3d6000fd5b505050506040513d601f19601f82011682018060405250810190610518919061236d565b508160ff6000868660405161052e9291906123ca565b6040518091039020815260200190815260200160002060008373ffffffffffffffffffffffffffffffffffffffff1673ffffffffffffffffffffffffffffffffffffffff16815260200190815260200160002060008282546105909190612412565b925050819055503373ffffffffffffffffffffffffffffffffffffffff167f7b2c468feb026788630cfbdc9c64aa29bde0318b58c8ab900614cc96f930595585858560fc866040516105e695949392919061256c565b60405180910390a250505050565b7f000000000000000000000000000000000000000000000000000000000000000073ffffffffffffffffffffffffffffffffffffffff163073ffffffffffffffffffffffffffffffffffffffff1603610682576040517f08c379a000000000000000000000000000000000000000000000000000000000815260040161067990612633565b60405180910390fd5b7f000000000000000000000000000000000000000000000000000000000000000073ffffffffffffffffffffffffffffffffffffffff166106c1611263565b73ffffffffffffffffffffffffffffffffffffffff1614610717576040517f08c379a000000000000000000000000000000000000000000000000000000000815260040161070e906126c5565b60405180910390fd5b610720816112ba565b61077981600067ffffffffffffffff81111561073f5761073e611d8e565b5b6040519080825280601f01601f1916602001820160405280156107715781602001600182028036833780820191505090505b5060006112c5565b50565b60fb60009054906101000a900460ff166107cb576040517f08c379a00000000000000000000000000000000000000000000000000000000081526004016107c290612731565b60405180910390fd5b836107d7898989610e04565b1015610818576040517f08c379a000000000000000000000000000000000000000000000000000000000815260040161080f906127c3565b60405180910390fd5b60fe838360405161082a9291906123ca565b908152602001604051809103902060009054906101000a900460ff1615610886576040517f08c379a000000000000000000000000000000000000000000000000000000000815260040161087d9061282f565b60405180910390fd5b600085853360fc8c8c8c6040516020016108a6979695949392919061296b565b6040516020818303038152906040528051906020012090506108c9818585611433565b610908576040517f08c379a00000000000000000000000000000000000000000000000000000000081526004016108ff90612a21565b60405180910390fd5b600160fe858560405161091c9291906123ca565b908152602001604051809103902060006101000a81548160ff0219169083151502179055508673ffffffffffffffffffffffffffffffffffffffff1663a9059cbb83876040518363ffffffff1660e01b815260040161097c929190612a41565b6020604051808303816000875af115801561099b573d6000803e3d6000fd5b505050506040513d601f19601f820116820180604052508101906109bf919061236d565b503373ffffffffffffffffffffffffffffffffffffffff167f8407e01c63958861c3963bdc9dd3ea91ccde4c64aeef37c136ae8549cf8288088a8a8860fc8c604051610a0f95949392919061256c565b60405180910390a2505050505050505050565b7f000000000000000000000000000000000000000000000000000000000000000073ffffffffffffffffffffffffffffffffffffffff163073ffffffffffffffffffffffffffffffffffffffff1603610ab0576040517f08c379a0000000000000000000000000000000000000000000000000000000008152600401610aa790612633565b60405180910390fd5b7f000000000000000000000000000000000000000000000000000000000000000073ffffffffffffffffffffffffffffffffffffffff16610aef611263565b73ffffffffffffffffffffffffffffffffffffffff1614610b45576040517f08c379a0000000000000000000000000000000000000000000000000000000008152600401610b3c906126c5565b60405180910390fd5b610b4e826112ba565b610b5a828260016112c5565b5050565b60007f000000000000000000000000000000000000000000000000000000000000000073ffffffffffffffffffffffffffffffffffffffff163073ffffffffffffffffffffffffffffffffffffffff1614610bee576040517f08c379a0000000000000000000000000000000000000000000000000000000008152600401610be590612adc565b60405180910390fd5b7f360894a13ba1a3210667c828492db98dca3e2076cc3735a920a3ca505d382bbc60001b905090565b60fb60009054906101000a900460ff16610c66576040517f08c379a0000000000000000000000000000000000000000000000000000000008152600401610c5d90612731565b60405180910390fd5b60fe8282604051610c789291906123ca565b908152602001604051809103902060009054906101000a900460ff1615610cd4576040517f08c379a0000000000000000000000000000000000000000000000000000000008152600401610ccb9061282f565b60405180910390fd5b600084843360fc8b8b8b604051602001610cf4979695949392919061296b565b604051602081830303815290604052805190602001209050610d17818484611433565b610d56576040517f08c379a0000000000000000000000000000000000000000000000000000000008152600401610d4d90612a21565b60405180910390fd5b600160fe8484604051610d6a9291906123ca565b908152602001604051809103902060006101000a81548160ff0219169083151502179055503373ffffffffffffffffffffffffffffffffffffffff167f0f26c836f96a618c08949606c5dea169c2ae9ade5c3b42b00e7aacfc4be0612a89898760fc8b604051610dde95949392919061256c565b60405180910390a25050505050505050565b610df86111e5565b610e0260006114de565b565b600060ff60008585604051610e1a9291906123ca565b6040518091039020815260200190815260200160002060008373ffffffffffffffffffffffffffffffffffffffff1673ffffffffffffffffffffffffffffffffffffffff1681526020019081526020016000205490509392505050565b6000609760009054906101000a900473ffffffffffffffffffffffffffffffffffffffff16905090565b60fc8054610eae906124a2565b80601f0160208091040260200160405190810160405280929190818152602001828054610eda906124a2565b8015610f275780601f10610efc57610100808354040283529160200191610f27565b820191906000526020600020905b815481529060010190602001808311610f0a57829003601f168201915b505050505081565b60fd60009054906101000a900473ffffffffffffffffffffffffffffffffffffffff1681565b610f5d6115a4565b610f6d878787878787873361077c565b610f756115f3565b50505050505050565b60ff602052816000526040600020602052806000526040600020600091509150505481565b610fab6111e5565b600073ffffffffffffffffffffffffffffffffffffffff168173ffffffffffffffffffffffffffffffffffffffff160361101a576040517f08c379a000000000000000000000000000000000000000000000000000000000815260040161101190612b6e565b60405180910390fd5b611023816114de565b50565b60008060019054906101000a900460ff161590508080156110575750600160008054906101000a900460ff1660ff16105b806110845750611066306115fd565b1580156110835750600160008054906101000a900460ff1660ff16145b5b6110c3576040517f08c379a00000000000000000000000000000000000000000000000000000000081526004016110ba90612c00565b60405180910390fd5b60016000806101000a81548160ff021916908360ff1602179055508015611100576001600060016101000a81548160ff0219169083151502179055505b611108611620565b611110611679565b6111186116ca565b8360fd60006101000a81548173ffffffffffffffffffffffffffffffffffffffff021916908373ffffffffffffffffffffffffffffffffffffffff160217905550828260fc918261116a929190612dc2565b50600160fb60006101000a81548160ff02191690831515021790555080156111df5760008060016101000a81548160ff0219169083151502179055507f7f26b83ff96e1f2b6a682f133852f6798a09c465da95921460cefb384740249860016040516111d69190612eda565b60405180910390a15b50505050565b6111ed611723565b73ffffffffffffffffffffffffffffffffffffffff1661120b610e77565b73ffffffffffffffffffffffffffffffffffffffff1614611261576040517f08c379a000000000000000000000000000000000000000000000000000000000815260040161125890612f41565b60405180910390fd5b565b60006112917f360894a13ba1a3210667c828492db98dca3e2076cc3735a920a3ca505d382bbc60001b61172b565b60000160009054906101000a900473ffffffffffffffffffffffffffffffffffffffff16905090565b6112c26111e5565b50565b6112f17f4910fdfa16fed3260ed0e7147f7cc6da11a60208b5b9406d12a635614ffd914360001b611735565b60000160009054906101000a900460ff1615611315576113108361173f565b61142e565b8273ffffffffffffffffffffffffffffffffffffffff166352d1902d6040518163ffffffff1660e01b8152600401602060405180830381865afa92505050801561137d57506040513d601f19601f8201168201806040525081019061137a9190612f76565b60015b6113bc576040517f08c379a00000000000000000000000000000000000000000000000000000000081526004016113b390613015565b60405180910390fd5b7f360894a13ba1a3210667c828492db98dca3e2076cc3735a920a3ca505d382bbc60001b8114611421576040517f08c379a0000000000000000000000000000000000000000000000000000000008152600401611418906130a7565b60405180910390fd5b5061142d8383836117f8565b5b505050565b600073__$14294c0984d700de041c28202fddad995f$__631a86b55060fd60009054906101000a900473ffffffffffffffffffffffffffffffffffffffff168686866040518563ffffffff1660e01b81526004016114949493929190613123565b602060405180830381865af41580156114b1573d6000803e3d6000fd5b505050506040513d601f19601f820116820180604052508101906114d5919061236d565b90509392505050565b6000609760009054906101000a900473ffffffffffffffffffffffffffffffffffffffff16905081609760006101000a81548173ffffffffffffffffffffffffffffffffffffffff021916908373ffffffffffffffffffffffffffffffffffffffff1602179055508173ffffffffffffffffffffffffffffffffffffffff168173ffffffffffffffffffffffffffffffffffffffff167f8be0079c531659141344cd1fd0a4f28419497f9722a3daafe3b4186f6b6457e060405160405180910390a35050565b600260c954036115e9576040517f08c379a00000000000000000000000000000000000000000000000000000000081526004016115e0906131af565b60405180910390fd5b600260c981905550565b600160c981905550565b6000808273ffffffffffffffffffffffffffffffffffffffff163b119050919050565b600060019054906101000a900460ff1661166f576040517f08c379a000000000000000000000000000000000000000000000000000000000815260040161166690613241565b60405180910390fd5b611677611824565b565b600060019054906101000a900460ff166116c8576040517f08c379a00000000000000000000000000000000000000000000000000000000081526004016116bf90613241565b60405180910390fd5b565b600060019054906101000a900460ff16611719576040517f08c379a000000000000000000000000000000000000000000000000000000000815260040161171090613241565b60405180910390fd5b611721611885565b565b600033905090565b6000819050919050565b6000819050919050565b611748816115fd565b611787576040517f08c379a000000000000000000000000000000000000000000000000000000000815260040161177e906132d3565b60405180910390fd5b806117b47f360894a13ba1a3210667c828492db98dca3e2076cc3735a920a3ca505d382bbc60001b61172b565b60000160006101000a81548173ffffffffffffffffffffffffffffffffffffffff021916908373ffffffffffffffffffffffffffffffffffffffff16021790555050565b611801836118de565b60008251118061180e5750805b1561181f5761181d838361192d565b505b505050565b600060019054906101000a900460ff16611873576040517f08c379a000000000000000000000000000000000000000000000000000000000815260040161186a90613241565b60405180910390fd5b61188361187e611723565b6114de565b565b600060019054906101000a900460ff166118d4576040517f08c379a00000000000000000000000000000000000000000000000000000000081526004016118cb90613241565b60405180910390fd5b600160c981905550565b6118e78161173f565b8073ffffffffffffffffffffffffffffffffffffffff167fbc7cd75a20ee27fd9adebab32041f755214dbc6bffa90cc0225b39da2e5c2d3b60405160405180910390a250565b606061195283836040518060600160405280602781526020016133b36027913961195a565b905092915050565b60606000808573ffffffffffffffffffffffffffffffffffffffff1685604051611984919061332f565b600060405180830381855af49150503d80600081146119bf576040519150601f19603f3d011682016040523d82523d6000602084013e6119c4565b606091505b50915091506119d5868383876119e0565b925050509392505050565b60608315611a42576000835103611a3a576119fa856115fd565b611a39576040517f08c379a0000000000000000000000000000000000000000000000000000000008152600401611a3090613392565b60405180910390fd5b5b829050611a4d565b611a4c8383611a55565b5b949350505050565b600082511115611a685781518083602001fd5b806040517f08c379a0000000000000000000000000000000000000000000000000000000008152600401611a9c9190612138565b60405180910390fd5b6000604051905090565b600080fd5b600080fd5b600073ffffffffffffffffffffffffffffffffffffffff82169050919050565b6000611ae482611ab9565b9050919050565b611af481611ad9565b8114611aff57600080fd5b50565b600081359050611b1181611aeb565b92915050565b600060208284031215611b2d57611b2c611aaf565b5b6000611b3b84828501611b02565b91505092915050565b600080fd5b600080fd5b600080fd5b60008083601f840112611b6957611b68611b44565b5b8235905067ffffffffffffffff811115611b8657611b85611b49565b5b602083019150836001820283011115611ba257611ba1611b4e565b5b9250929050565b6000819050919050565b611bbc81611ba9565b8114611bc757600080fd5b50565b600081359050611bd981611bb3565b92915050565b60008060008060608587031215611bf957611bf8611aaf565b5b600085013567ffffffffffffffff811115611c1757611c16611ab4565b5b611c2387828801611b53565b94509450506020611c3687828801611bca565b9250506040611c4787828801611b02565b91505092959194509250565b60008083601f840112611c6957611c68611b44565b5b8235905067ffffffffffffffff811115611c8657611c85611b49565b5b602083019150836001820283011115611ca257611ca1611b4e565b5b9250929050565b60008060008060008060008060c0898b031215611cc957611cc8611aaf565b5b600089013567ffffffffffffffff811115611ce757611ce6611ab4565b5b611cf38b828c01611b53565b98509850506020611d068b828c01611b02565b9650506040611d178b828c01611bca565b9550506060611d288b828c01611bca565b945050608089013567ffffffffffffffff811115611d4957611d48611ab4565b5b611d558b828c01611c53565b935093505060a0611d688b828c01611b02565b9150509295985092959890939650565b600080fd5b6000601f19601f8301169050919050565b7f4e487b7100000000000000000000000000000000000000000000000000000000600052604160045260246000fd5b611dc682611d7d565b810181811067ffffffffffffffff82111715611de557611de4611d8e565b5b80604052505050565b6000611df8611aa5565b9050611e048282611dbd565b919050565b600067ffffffffffffffff821115611e2457611e23611d8e565b5b611e2d82611d7d565b9050602081019050919050565b82818337600083830152505050565b6000611e5c611e5784611e09565b611dee565b905082815260208101848484011115611e7857611e77611d78565b5b611e83848285611e3a565b509392505050565b600082601f830112611ea057611e9f611b44565b5b8135611eb0848260208601611e49565b91505092915050565b60008060408385031215611ed057611ecf611aaf565b5b6000611ede85828601611b02565b925050602083013567ffffffffffffffff811115611eff57611efe611ab4565b5b611f0b85828601611e8b565b9150509250929050565b6000819050919050565b611f2881611f15565b82525050565b6000602082019050611f436000830184611f1f565b92915050565b600080600080600080600060a0888a031215611f6857611f67611aaf565b5b600088013567ffffffffffffffff811115611f8657611f85611ab4565b5b611f928a828b01611b53565b97509750506020611fa58a828b01611b02565b9550506040611fb68a828b01611bca565b9450506060611fc78a828b01611bca565b935050608088013567ffffffffffffffff811115611fe857611fe7611ab4565b5b611ff48a828b01611c53565b925092505092959891949750929550565b60008060006040848603121561201e5761201d611aaf565b5b600084013567ffffffffffffffff81111561203c5761203b611ab4565b5b61204886828701611b53565b9350935050602061205b86828701611b02565b9150509250925092565b61206e81611ba9565b82525050565b60006020820190506120896000830184612065565b92915050565b61209881611ad9565b82525050565b60006020820190506120b3600083018461208f565b92915050565b600081519050919050565b600082825260208201905092915050565b60005b838110156120f35780820151818401526020810190506120d8565b60008484015250505050565b600061210a826120b9565b61211481856120c4565b93506121248185602086016120d5565b61212d81611d7d565b840191505092915050565b6000602082019050818103600083015261215281846120ff565b905092915050565b61216381611f15565b811461216e57600080fd5b50565b6000813590506121808161215a565b92915050565b6000806040838503121561219d5761219c611aaf565b5b60006121ab85828601612171565b92505060206121bc85828601611b02565b9150509250929050565b6000806000604084860312156121df576121de611aaf565b5b60006121ed86828701611b02565b935050602084013567ffffffffffffffff81111561220e5761220d611ab4565b5b61221a86828701611b53565b92509250509250925092565b7f494e56414c49445f43414e495354455249440000000000000000000000000000600082015250565b600061225c6012836120c4565b915061226782612226565b602082019050919050565b6000602082019050818103600083015261228b8161224f565b9050919050565b7f616d6f756e74203d3d2030000000000000000000000000000000000000000000600082015250565b60006122c8600b836120c4565b91506122d382612292565b602082019050919050565b600060208201905081810360008301526122f7816122bb565b9050919050565b6000606082019050612313600083018661208f565b612320602083018561208f565b61232d6040830184612065565b949350505050565b60008115159050919050565b61234a81612335565b811461235557600080fd5b50565b60008151905061236781612341565b92915050565b60006020828403121561238357612382611aaf565b5b600061239184828501612358565b91505092915050565b600081905092915050565b60006123b1838561239a565b93506123be838584611e3a565b82840190509392505050565b60006123d78284866123a5565b91508190509392505050565b7f4e487b7100000000000000000000000000000000000000000000000000000000600052601160045260246000fd5b600061241d82611ba9565b915061242883611ba9565b92508282019050808211156124405761243f6123e3565b5b92915050565b600061245283856120c4565b935061245f838584611e3a565b61246883611d7d565b840190509392505050565b7f4e487b7100000000000000000000000000000000000000000000000000000000600052602260045260246000fd5b600060028204905060018216806124ba57607f821691505b6020821081036124cd576124cc612473565b5b50919050565b60008190508160005260206000209050919050565b600081546124f5816124a2565b6124ff81866120c4565b9450600182166000811461251a576001811461253057612563565b60ff198316865281151560200286019350612563565b612539856124d3565b60005b8381101561255b5781548189015260018201915060208101905061253c565b808801955050505b50505092915050565b60006080820190508181036000830152612587818789612446565b90506125966020830186612065565b81810360408301526125a881856124e8565b90506125b7606083018461208f565b9695505050505050565b7f46756e6374696f6e206d7573742062652063616c6c6564207468726f7567682060008201527f64656c656761746563616c6c0000000000000000000000000000000000000000602082015250565b600061261d602c836120c4565b9150612628826125c1565b604082019050919050565b6000602082019050818103600083015261264c81612610565b9050919050565b7f46756e6374696f6e206d7573742062652063616c6c6564207468726f7567682060008201527f6163746976652070726f78790000000000000000000000000000000000000000602082015250565b60006126af602c836120c4565b91506126ba82612653565b604082019050919050565b600060208201905081810360008301526126de816126a2565b9050919050565b7f434f4e54524143545f554e494e495449414c495a454400000000000000000000600082015250565b600061271b6016836120c4565b9150612726826126e5565b602082019050919050565b6000602082019050818103600083015261274a8161270e565b9050919050565b7f57495448445241575f414d4f554e54203e20434f4e54524143545f42414c414e60008201527f4345000000000000000000000000000000000000000000000000000000000000602082015250565b60006127ad6022836120c4565b91506127b882612751565b604082019050919050565b600060208201905081810360008301526127dc816127a0565b9050919050565b7f555345445f5349474e4154555245000000000000000000000000000000000000600082015250565b6000612819600e836120c4565b9150612824826127e3565b602082019050919050565b600060208201905081810360008301526128488161280c565b9050919050565b6000819050919050565b61286a61286582611ba9565b61284f565b82525050565b60008160601b9050919050565b600061288882612870565b9050919050565b600061289a8261287d565b9050919050565b6128b26128ad82611ad9565b61288f565b82525050565b600081905092915050565b600081546128d0816124a2565b6128da81866128b8565b945060018216600081146128f5576001811461290a5761293d565b60ff198316865281151582028601935061293d565b612913856124d3565b60005b8381101561293557815481890152600182019150602081019050612916565b838801955050505b50505092915050565b600061295283856128b8565b935061295f838584611e3a565b82840190509392505050565b6000612977828a612859565b6020820191506129878289612859565b60208201915061299782886128a1565b6014820191506129a782876128c3565b91506129b4828587612946565b91506129c082846128a1565b60148201915081905098975050505050505050565b7f494e56414c49445f5349474e4154555245000000000000000000000000000000600082015250565b6000612a0b6011836120c4565b9150612a16826129d5565b602082019050919050565b60006020820190508181036000830152612a3a816129fe565b9050919050565b6000604082019050612a56600083018561208f565b612a636020830184612065565b9392505050565b7f555550535570677261646561626c653a206d757374206e6f742062652063616c60008201527f6c6564207468726f7567682064656c656761746563616c6c0000000000000000602082015250565b6000612ac66038836120c4565b9150612ad182612a6a565b604082019050919050565b60006020820190508181036000830152612af581612ab9565b9050919050565b7f4f776e61626c653a206e6577206f776e657220697320746865207a65726f206160008201527f6464726573730000000000000000000000000000000000000000000000000000602082015250565b6000612b586026836120c4565b9150612b6382612afc565b604082019050919050565b60006020820190508181036000830152612b8781612b4b565b9050919050565b7f496e697469616c697a61626c653a20636f6e747261637420697320616c72656160008201527f647920696e697469616c697a6564000000000000000000000000000000000000602082015250565b6000612bea602e836120c4565b9150612bf582612b8e565b604082019050919050565b60006020820190508181036000830152612c1981612bdd565b9050919050565b600082905092915050565b60006020601f8301049050919050565b600082821b905092915050565b600060088302612c787fffffffffffffffffffffffffffffffffffffffffffffffffffffffffffffffff82612c3b565b612c828683612c3b565b95508019841693508086168417925050509392505050565b6000819050919050565b6000612cbf612cba612cb584611ba9565b612c9a565b611ba9565b9050919050565b6000819050919050565b612cd983612ca4565b612ced612ce582612cc6565b848454612c48565b825550505050565b600090565b612d02612cf5565b612d0d818484612cd0565b505050565b5b81811015612d3157612d26600082612cfa565b600181019050612d13565b5050565b601f821115612d7657612d47816124d3565b612d5084612c2b565b81016020851015612d5f578190505b612d73612d6b85612c2b565b830182612d12565b50505b505050565b600082821c905092915050565b6000612d9960001984600802612d7b565b1980831691505092915050565b6000612db28383612d88565b9150826002028217905092915050565b612dcc8383612c20565b67ffffffffffffffff811115612de557612de4611d8e565b5b612def82546124a2565b612dfa828285612d35565b6000601f831160018114612e295760008415612e17578287013590505b612e218582612da6565b865550612e89565b601f198416612e37866124d3565b60005b82811015612e5f57848901358255600182019150602085019450602081019050612e3a565b86831015612e7c5784890135612e78601f891682612d88565b8355505b6001600288020188555050505b50505050505050565b6000819050919050565b600060ff82169050919050565b6000612ec4612ebf612eba84612e92565b612c9a565b612e9c565b9050919050565b612ed481612ea9565b82525050565b6000602082019050612eef6000830184612ecb565b92915050565b7f4f776e61626c653a2063616c6c6572206973206e6f7420746865206f776e6572600082015250565b6000612f2b6020836120c4565b9150612f3682612ef5565b602082019050919050565b60006020820190508181036000830152612f5a81612f1e565b9050919050565b600081519050612f708161215a565b92915050565b600060208284031215612f8c57612f8b611aaf565b5b6000612f9a84828501612f61565b91505092915050565b7f45524331393637557067726164653a206e657720696d706c656d656e7461746960008201527f6f6e206973206e6f742055555053000000000000000000000000000000000000602082015250565b6000612fff602e836120c4565b915061300a82612fa3565b604082019050919050565b6000602082019050818103600083015261302e81612ff2565b9050919050565b7f45524331393637557067726164653a20756e737570706f727465642070726f7860008201527f6961626c65555549440000000000000000000000000000000000000000000000602082015250565b60006130916029836120c4565b915061309c82613035565b604082019050919050565b600060208201905081810360008301526130c081613084565b9050919050565b6130d081611ad9565b82525050565b6130df81611f15565b82525050565b600082825260208201905092915050565b600061310283856130e5565b935061310f838584611e3a565b61311883611d7d565b840190509392505050565b600060608201905061313860008301876130c7565b61314560208301866130d6565b81810360408301526131588184866130f6565b905095945050505050565b7f5265656e7472616e637947756172643a207265656e7472616e742063616c6c00600082015250565b6000613199601f836120c4565b91506131a482613163565b602082019050919050565b600060208201905081810360008301526131c88161318c565b9050919050565b7f496e697469616c697a61626c653a20636f6e7472616374206973206e6f74206960008201527f6e697469616c697a696e67000000000000000000000000000000000000000000602082015250565b600061322b602b836120c4565b9150613236826131cf565b604082019050919050565b6000602082019050818103600083015261325a8161321e565b9050919050565b7f455243313936373a206e657720696d706c656d656e746174696f6e206973206e60008201527f6f74206120636f6e747261637400000000000000000000000000000000000000602082015250565b60006132bd602d836120c4565b91506132c882613261565b604082019050919050565b600060208201905081810360008301526132ec816132b0565b9050919050565b600081519050919050565b6000613309826132f3565b613313818561239a565b93506133238185602086016120d5565b80840191505092915050565b600061333b82846132fe565b915081905092915050565b7f416464726573733a2063616c6c20746f206e6f6e2d636f6e7472616374000000600082015250565b600061337c601d836120c4565b915061338782613346565b602082019050919050565b600060208201905081810360008301526133ab8161336f565b905091905056fe416464726573733a206c6f772d6c6576656c2064656c65676174652063616c6c206661696c6564a2646970667358221220e8857b1b7d2de600f1e7441e488d69dbc1699a8d80fb550ad8b6c2d672e6d38a64736f6c63430008120033",
    "linkReferences": {
        "contracts/lib/VerifySignature.sol": {
            "VerifySignature": [
                {
                    "length": 20,
                    "start": 5298
                }
            ]
        }
    },
    "deployedLinkReferences": {
        "contracts/lib/VerifySignature.sol": {
            "VerifySignature": [
                {
                    "length": 20,
                    "start": 5175
                }
            ]
        }
    }
}